:03000000020800F3
:0C080000787FE4F6D8FD758120020847DF
:02091500C1001F
:1008FA00759850438920758DF3D2ACD2AFD28E3021
:0B090A0000FDC20012088CD2AC80F48B
:030023000208CA06
:1008CA00C0E0C0D075D000C00030981DC29874082E
:1008DA00251CF8A6997408251CF8E6B40A09751CA3
:1008EA0000D200C2AC8002051CD000D0D0D0E032C9
:10088C00E50824CE60171460211460112403702D28
:10089C00E5A0541F44A0F5A07580408018E5A05435
:1008AC001F44A0F5A0E4F580800BE5A0541F44A0E4
:0E08BC00F5A0758010E5A0541F44A0F5A02201
:10080C000208FAE493A3F8E493A34003F68001F200
:10081C0008DFF48029E493A3F85407240CC8C333ED
:10082C00C4540F4420C8834004F456800146F6DFBC
:10083C00E4800B0102040810204080900915E47E2E
:10084C00019360BCA3FF543F30E509541FFEE493B1
:10085C00A360010ECF54C025E060A840B8E493A378
:10086C00FAE493A3F8E493A3C8C582C8CAC583CAA3
:10087C00F0A3C8C582C8CAC583CADFE9DEE780BE5B
:0109170000DF
:00000001FF
