:0300000002000EED
:0C000E00787FE4F6D8FD758120020055D3
:05000300C1010109002C
:10011F00750CFF5389F0438901758CF8758A30D2BD
:10012F00AFD2A9D28C300107C20112009A8F0CAF47
:09013F000C120148750CFF80EC64
:03000B0002016B84
:10016B00C0E0C0D0758CF8758A300509E509B40A72
:0B017B0005750900D201D0D0D0E032A1
:10009A00E5B054F0F50D64F06004050B8003E4F557
:1000AA000BE50B6403705AF50BD200E50D24506082
:1000BA001124E0601224F060132470701275080194
:1000CA00800D75080280087508038003750804E529
:1000DA00B0540FF50D24F9602224FC601624FE604A
:1000EA000A14701DE50814F50A8016E5082403F5BC
:1000FA000A800EE5082407F50A8006E508240BF5B0
:10010A000AE5B0540FF50D300008B40F05C200AF70
:04011A000A227FFF37
:01011E0022BE
:10014800EF14601104701BE5A0541F4480F5A0054E
:100158008053A01F22E5A0541F4480F5A0158053AA
:03016800A01F22B3
:10001A0002011FE493A3F8E493A34003F68001F2DC
:10002A0008DFF48029E493A3F85407240CC8C333E7
:10003A00C4540F4420C8834004F456800146F6DFB6
:10004A00E4800B0102040810204080900003E47E43
:10005A00019360BCA3FF543F30E509541FFEE493AB
:10006A00A360010ECF54C025E060A840B8E493A372
:10007A00FAE493A3F8E493A3C8C582C8CAC583CA9D
:10008A00F0A3C8C582C8CAC583CADFE9DEE780BE55
:0100080000F7
:00000001FF
