:03000000020900F2
:0C090000787FE4F6D8FD7581070208003E
:100800007DF0E5A0541F44A0F5A0C286E4FF1208C5
:100810002AAD070DE4FF1208ACE5A0541F4480F593
:0A082000A0E4FF12082A8F8080FE7A
:0F08F100D2A1D2A0000000C2A1000000C2A0222C
:0A090C00C2A1D2A0000000D2A12277
:1008C600EF6004C2A18002D2A1000000D2A0000005
:0908D60000C2A0D2A10000002222
:0B084F0012087212085AAF051208725E
:10085A00D2A1000000D2A000000030A107C2A0125D
:08086A00090CC322C2A0D32235
:10087200E4FEEF30E704D2A18002C2A1000000D260
:0E088200A0EF25E0FF000000C2A00EBE08E4BB
:010890002245
:10089100E4FED2A0000000EF25E0FF30A1034307F2
:0A08A10001C2A00000000EBE08E82E
:0108AB00222A
:1008AC00AC071208F17FA012087212085AAF04129A
:0A08BC00084F12090C7F320208DF1A
:02082A00AD0718
:10082C001208F17FA012084F1208F17FA112087272
:10083C0012085A120891AE07E4FF1208C612090CEE
:02084C00AF06F5
:01084E002287
:1008DF00AD071FED600BE4FEEEC3947050F20E8077
:0108EF00F711
:0108F00022E5
:00000001FF
