:03000000020800F3
:0C080000787FE4F6D8FD758120020847DF
:040A4100D2A07F05BB
:080A450000AE071FEE70F9225C
:0F0A3200D2A1120A41C2A17F05120A45C2A02219
:0C0A4D00C2A1120A41D2A17F05020A4595
:02094800AD07F9
:10094A00E4FCC2A07F05120A45ED30E704D2A1807B
:10095A0002C2A17F05120A45D2A0ED25E0FD7F055E
:09096A00120A450CBC08DBC2A016
:010973002261
:0309E500120948AC
:1009E800120A41A2A1E433FDC2A07F05120A45AF55
:0109F80005F9
:0109F90022DB
:10099500E4FC120A41ED25E0FD30A103430501C247
:0C09A500A07F05120A450CBC08E8AF0555
:0109B1002223
:1009CD00C2A0EF24FF92A17F05120A45120A41C26F
:0809DD00A0D2A17F05020A452A
:100A0F00AD071FED600BE4FEEEC3947050F20E8045
:010A1F00F7DF
:010A200022B3
:1009FA00120A327F901209E57F031209E5120A4DA5
:050A0A007F0A020A0F43
:1009B200120A327F911209481209E8120995AD070D
:0A09C2007F011209CD120A4DAF05A6
:0109CC002208
:0B0A5900C0F9A4B0999282F88090FFD1
:100A2100080AFFFFFFFFFFFFFFFF010900010800A8
:10097400438901758CF8758A30D2AFD2A9D28C1212
:1009840009FA3000FDC2001209B28F131208D9808F
:01099400F171
:03000B0002088C5C
:10088C00C0E0C0F0C083C082C0D075D000C000C032
:10089C0001C002C003C004C005C006C007758CF8B7
:1008AC00758A300512E512B43205751200D20012A9
:1008BC000913D007D006D005D004D003D002D00144
:0D08CC00D000D0D0D082D083D0F0D0E03268
:1008D900EF75F0648475F00A8485F014EF75F00AF9
:1008E9008475F00A8485F015EF75F00A8485F01691
:1008F900E4FF74142FF8E6900A5993FE740A2FF84E
:09090900A6060FBF03EC530A7FA0
:0109120022C2
:10091300E5A0541F44C0F5A0AF087401A8070880E0
:1009230002C333D8FCF580E5A0541F44E0F5A0745E
:100933000A2508F8E6F580E508C39408500305087E
:0409430022E4F508AD
:01094700228D
:10080C00020974E493A3F8E493A34003F68001F285
:10081C0008DFF48029E493A3F85407240CC8C333ED
:10082C00C4540F4420C8834004F456800146F6DFBC
:10083C00E4800B0102040810204080900A21E47E21
:10084C00019360BCA3FF543F30E509541FFEE493B1
:10085C00A360010ECF54C025E060A840B8E493A378
:10086C00FAE493A3F8E493A3C8C582C8CAC583CAA3
:10087C00F0A3C8C582C8CAC583CADFE9DEE780BE5B
:010A310000C4
:00000001FF
