:0300000002091DD5
:0C091D00787FE4F6D8FD7581390209648A
:100B4600C100012D00012E000A23C0F9A4B099921C
:100B560082F88090082FFFFFFFFFFFFFFFFF03379C
:090B6600065900012100012200E2
:100A5600D2AF7F017E001209A9E4FD7F8E120BA89A
:100A6600E4FD7F80120BA87D597F82120BA87D06BC
:100A76007F84120BA8300017C2007F85120BC08F2F
:100A8600377F83120BC08F387F81120BC08F3912CC
:040A96000A0E80E1E3
:1009A9008E088F09E4FCFD7B997A03F9F812080097
:1009B900C3E49FFFE49EFE74019DFDE49CFCE4FBFF
:1009C9007A01F9F8120A9A8F2DAE08AF09E4FCFDF5
:1009D9007B997A03F9F8120800C3E49FFFE49EFEAD
:1009E90074019DFDE49CFCE4FB7A01F9F8120A9A72
:1009F900AF038F2E5389F0438901852D8C852E8A6B
:050A0900D2A9D28C22ED
:100A0E00E539540F2423F8E6F52FE539547FC45405
:100A1E000F2423F8E6F5307531BFE538540F242343
:100A2E00F8E6F532E538C4540F2423F8E6F53375AD
:100A3E0034BFE537540F2423F8E6F535E537C454B3
:080A4E000F2423F8E6F536221F
:100ADE00E5A0541F44C0F5A0AF217480A80708807C
:100AEE0002C313D8FCF58053A01FE5A0541F44E0A9
:100AFE00F5A0742F2521F8E6F58053A01FE521C33C
:0A0B0E0094085003052122E4F521AC
:010B180022BA
:03000B00020B19CC
:0B0B1900C0E0C0D075D000C000C007D5
:100B2400852D8C852E8A120ADEE522D394C85004C2
:090B340005228005752200D200A3
:090B3D00D007D000D0D0D0E03286
:100B8D00C297E4FEEF30E004D2A38002C2A3D29755
:0A0B9D00C297EFC313FF0EBE08EA73
:010BA700222B
:100B7000E4FFFEEFC313FF30A30543078080035358
:0C0B8000077FD297C2970EBE08E9C2A3FF
:010B8C002246
:100BA800AE07C293C297D2935306FEAF06120B8DBF
:080BB800AF05120B8DC2932260
:100BC000C293C297D293430701120B8D120B70C2CE
:010BD0009391
:010BD1002201
:10092900020A56E493A3F8E493A34003F68001F284
:1009390008DFF48029E493A3F85407240CC8C333CF
:10094900C4540F4420C8834004F456800146F6DF9E
:10095900E4800B0102040810204080900B46E47EDD
:10096900019360BCA3FF543F30E509541FFEE49393
:10097900A360010ECF54C025E060A840B8E493A35A
:10098900FAE493A3F8E493A3C8C582C8CAC583CA85
:10099900F0A3C8C582C8CAC583CADFE9DEE780BE3D
:010B6F000085
:10080000E88FF0A4CC8BF0A42CFCE98EF0A42CFC97
:100810008AF0EDA42CFCEA8EF0A4CDA8F08BF0A415
:100820002DCC3825F0FDE98FF0A42CCD35F0FCEB74
:100830008EF0A4FEA9F0EB8FF0A4CFC5F02ECD3939
:0F084000FEE43CFCEAA42DCE35F0FDE43CFC22A6
:100A9A00C2D5E830E70FB2D5E4C39BFBE49AFAE487
:100AAA0099F9E498F8EC30E717B2D5120AD012088F
:100ABA008BE4C39BFBE49AFAE499F9E498F880037F
:100ACA0012088B30D50DE4C39FFFE49EFEE49DFD22
:040ADA00E49CFC227A
:10084F0075F008758200EF2FFFEE33FECD33CDCC60
:10085F0033CCC58233C5829BED9AEC99E5829840E3
:10086F000CF582EE9BFEED9AFDEC99FC0FD5F0D6C0
:10087F00E4CEFBE4CDFAE4CCF9A88222B800C1B9EA
:10088F000059BA002DEC8BF084CFCECDFCE5F0CB28
:10089F00F97818EF2FFFEE33FEED33FDEC33FCEB61
:1008AF0033FB10D703994004EB99FB0FD8E5E4F91C
:1008BF00FA227818EF2FFFEE33FEED33FDEC33FC09
:1008CF00C933C910D7059BE99A4007EC9BFCE99AFD
:1008DF00F90FD8E0E4C9FAE4CCFB2275F010EF2F42
:1008EF00FFEE33FEED33FDCC33CCC833C810D70742
:1008FF009BEC9AE899400AED9BFDEC9AFCE899F87D
:0E090F000FD5F0DAE4CDFBE4CCFAE4C8F9220F
:00000001FF
