:03000000020AC62B
:0C0AC600787FE4F6D8FD758120020B0D4E
:100C180000C000F900A400B000990092008200F81A
:040C280000800090B8
:100C020008080A0A0A0A0A0A0A0A0110000211005E
:050C12000002130000C8
:100A2800438911758CF8758A30E4F58DF58BD2AF52
:100A3800D2A9D2ABD28C30004EC200120BE1D28EBA
:100A4800309103308FFAC28E308F0AC28F75152706
:100A580075160F802DAF8D7513008F14E51475145E
:100A680000F513AF8BEF4214E4AC13AD1412090B6D
:100A78007B967A43798B783C1208001209448E15CC
:100A88008F16E4F58DF58BAE15AF167C007D6412DC
:100A980009C58F0DAE15AF167C007D641209C57EA1
:100AA800007F0ACFCDCFCECCCE1209C58F0EAE15A2
:0E0AB800AF167C007D0A1209C58D0F020A3EA2
:03000B00020B5293
:100B5200C0E0C0F0C083C082C0D075D000C000C069
:100B620001C002C003C004C005C006C007758CF8EE
:100B7200758A30120BA70512E5127002051164C8BE
:100B820045117006D200F511F512D007D006D00536
:100B9200D004D003D002D001D000D0D0D082D083F4
:050BA200D0F0D0E032AC
:100BA70090E00074FFF0AF107401A807088002C33B
:100BB70033D8FC90C000F074082510F8E625E0242F
:100BC70018F582E4340CF58374019390E000F00586
:0A0BD70010E510B40803E4F5102245
:100BE1007F08D29000000000000000000000C290C9
:100BF10000000000000000000000AE071FEE70E2E0
:010C010022D0
:10080000EC4D6011E8497017ED33EC3304600DE4F2
:10081000FCFFFEFD22E933E8330470F80209B01250
:10082000097B58046009E4CC248150062850090251
:1008300009BA2840030209B7C0E0EB4A7044B98006
:1008400006D0E0FB0209A6EF4E701CBD8008EBFF4E
:10085000EAFEE9FD80EBE98DF0A4FEE5F00208E98F
:10086000E9CDF9EAFEEBFFEF89F0A4FCE5F0CE89D3
:10087000F0A42EFFE435F0CD89F0A42DFEE435F090
:100880008067EF4E7005BD80D780C3EF8BF0A4ACBE
:10089000F0EE8BF0A42CFCE435F0F8EF8AF0A42CF9
:1008A000E5F038FCE433CB8DF0A42CFCE5F03BF80C
:1008B000EE8AF0A42CFCE5F038F8E433CF89F0A4FC
:1008C0002CFCE5F038CF3400CE89F0A42FFFE5F002
:1008D0003EFEE433C98DF0A42EFEE5F039CD8AF05A
:1008E000A42FFFE5F03EFEE43DFD33D0E0FB5007D2
:1008F0000BBB000F0209BAEC2CFCEF33FFEE33FE0A
:06090000ED33FD02099237
:1009060075F020800E75F010800575F0087D007E6C
:10091600007F003392D530D503120A1AEC3340100B
:10092600EF33FFEE33FEED33FDEC33FCD5F0ED2275
:0E093600E5F0247EA2D513CC92E7CDCEFF22B1
:10094400EDD2E7CD33EC3392D524814006E4FFFEAB
:10095400FDFC22FCE4CFCECDCC24E0501174FF800A
:10096400EDC3CC13CCCD13CDCE13CECF13CF0470A7
:07097400F030D5DE020A1A83
:10097B00E9D2E7C933E833F892D5EDD2E7CD33ECC2
:07098B0033FC5002B2D5223B
:10099200EC30E7100FBF000C0EBE00080DBD0004C6
:1009A2000BEB6014A2D5EB13FCED92E7FD2274FF72
:1009B200FCFDFEFF22E480F8A2D574FF13FC7D80CB
:0309C200E480EFDF
:100AD200020A28E493A3F8E493A34003F68001F208
:100AE20008DFF48029E493A3F85407240CC8C33325
:100AF200C4540F4420C8834004F456800146F6DFF4
:100B0200E4800B0102040810204080900C02E47E75
:100B1200019360BCA3FF543F30E509541FFEE493E8
:100B2200A360010ECF54C025E060A840B8E493A3AF
:100B3200FAE493A3F8E493A3C8C582C8CAC583CADA
:100B4200F0A3C8C582C8CAC583CADFE9DEE780BE92
:010C170000DC
:1009C500BC000BBE0029EF8DF084FFADF022E4CC16
:1009D500F875F008EF2FFFEE33FEEC33FCEE9DECDF
:1009E500984005FCEE9DFE0FD5F0E9E4CEFD22ED25
:1009F500F8F5F0EE8420D21CFEADF075F008EF2F6F
:100A0500FFED33FD4007985006D5F0F222C398FD5F
:050A15000FD5F0EA22FC
:0E0A1A00C3E49FFFE49EFEE49DFDE49CFC22ED
:00000001FF
