:0300000002009B60
:0C009B00787FE4F6D8FD7581200200E2B9
:0402BF00D2A07F0545
:0802C30000AE071FEE70F922E6
:0F02A200D2A11202BFC2A17F051202C3C2A022C5
:0C02CB00C2A11202BFD2A17F050202C333
:02021300AD0735
:10021500C2AFE4FCC2A07F051202C3ED30E704D2F1
:10022500A18002C2A17F051202C3D2A0ED25E0FD87
:0D0235007F051202C30CBC08DBD2AFC2A0D3
:010242002299
:03028D0012021347
:100290001202BFA2A1E433FDC2A07F051202C3AFC8
:0102A0000558
:0102A100223A
:10027300AB071202A27F9012028D7F4012028DAF54
:0A028300031202131202900202CBD4
:0B02D700C0F9A4B0999282F88090FF5B
:0D02B10008080A0A0A0A00000000011000F7
:10000E00438901758CF8758A30D2AFD2A9D28C3063
:10001E000107C2011201C98F14E51424FE600C04FD
:10002E0070100515AF1512027380071515AF151256
:10003E000273E4F514E51575F012A4FBAAF07C0327
:10004E007DE8FFAE021201278F0C7C037DE8AF0323
:10005E00AE021201277E007F64CFCDCFCECCCE1262
:10006E0001278F0D7C007D64AF03AE021201277E47
:10007E00007F0ACFCDCFCECCCE1201278F0E7C00C3
:0D008E007D0AAF03AE021201278D0F8082A4
:03000B0002017C73
:10017C00C0E0C0F0C083C082C0D075D000C000C049
:10018C0001C002C003C004C005C006C007758CF8CE
:10019C00758A301202430511E511B40A0575110078
:1001AC00D201D007D006D005D004D003D002D001A4
:0D01BC00D000D0D0D082D083D0F0D0E0327F
:1002430090E00074FFF0AF107401A807088002C3A8
:1002530033D8FC90C000F074082510F8E69002D75C
:100263009390E000F00510E510B40803E4F51022C4
:1001C900E5B0540FFF640F600405138003E4F513D1
:1001D900E513B40527E4F513D200EF24F9601A24D6
:1001E900FC601124FE6008147012751201800D75EF
:1001F900120280087512038003751204300008BFCB
:090209000F05C200AF12227FFFB5
:0102120022C9
:1000A70002000EE493A3F8E493A34003F68001F261
:1000B70008DFF48029E493A3F85407240CC8C3335A
:1000C700C4540F4420C8834004F456800146F6DF29
:1000D700E4800B01020408102040809002B1E47E06
:1000E700019360BCA3FF543F30E509541FFEE4931E
:1000F700A360010ECF54C025E060A840B8E493A3E5
:10010700FAE493A3F8E493A3C8C582C8CAC583CA0F
:10011700F0A3C8C582C8CAC583CADFE9DEE780BEC7
:0102BE00003F
:10012700BC000BBE0029EF8DF084FFADF022E4CCBC
:10013700F875F008EF2FFFEE33FEEC33FCEE9DEC85
:10014700984005FCEE9DFE0FD5F0E9E4CEFD22EDCB
:10015700F8F5F0EE8420D21CFEADF075F008EF2F15
:10016700FFED33FD4007985006D5F0F222C398FD06
:050177000FD5F0EA22A3
:00000001FF
