:0300000002000EED
:0C000E00787FE4F6D8FD758110020055E3
:0A012A00C0F9A4B0999282F8809009
:0D011C000808010203040506070801100091
:10010B00438901758CF8758A30D2AFD2A9D28C8015
:01011B00FEE5
:03000B0002009A56
:10009A00C0E0C0F0C083C082C0D075D000C000C02C
:1000AA0001C002C003C004C005C006C007758CF8B1
:1000BA00758A301200DBD007D006D005D004D003F1
:1000CA00D002D001D000D0D0D082D083D0F0D0E0FE
:0100DA0032F3
:1000DB0090E00074FFF0AF107401A807088002C312
:1000EB0033D8FC90C000F074082510F8E690012A74
:1000FB009390E000F00510E510B40803E4F510222E
:10001A0002010BE493A3F8E493A34003F68001F2F0
:10002A0008DFF48029E493A3F85407240CC8C333E7
:10003A00C4540F4420C8834004F456800146F6DFB6
:10004A00E4800B010204081020408090011CE47E29
:10005A00019360BCA3FF543F30E509541FFEE493AB
:10006A00A360010ECF54C025E060A840B8E493A372
:10007A00FAE493A3F8E493A3C8C582C8CAC583CA9D
:10008A00F0A3C8C582C8CAC583CADFE9DEE780BE55
:0101290000D5
:00000001FF
