:03000000020800F3
:0C080000787FE4F6D8FD758120020847DF
:0B0A1000C0F9A4B0999282F88090FF1A
:0F0A000008080A0A0A0A0A0A0000011000C100C9
:10095B00438901758CF8758A30D2AFD2A9D28C300D
:10096B000007C2001209238F12E51275F00A84F5F5
:0C097B000EE51275F00A8485F00F80E391
:03000B0002088C5C
:10088C00C0E0C0F0C083C082C0D075D000C000C032
:10089C0001C002C003C004C005C006C007758CF8B7
:1008AC00758A301208D90511E511B40505751100CA
:1008BC00D200D007D006D005D004D003D002D0018E
:0D08CC00D000D0D0D082D083D0F0D0E03268
:1008D900E5A0541F44E0F5A07580FF53A01FE5A0D3
:1008E900541F44C0F5A0AF107401A807088002C3C3
:1008F90033D8FCF58053A01FE5A0541F44E0F5A0B0
:1009090074082510F8E6900A1093F58053A01F0586
:0A09190010E510B40803E4F5102205
:0409CC007F057E0025
:1009D000EF1FAA0670011E4A600BE4FDEDC3940CE4
:0509E00050EE0D80F750
:0109E50022EF
:0209AE00A90797
:1009B000E4FBC294E91392941209CCD294E9C313D4
:0C09C000F90BBB08ED7F057E000209D09A
:1009E600E4FBC294ECC313FCD2943094034304801A
:0909F6001209CC0BBB08EBAF04A5
:0109FF0022D5
:10098700C201D2947F0C7E001209D0C2947F507EA0
:10099700001209D0D2947F0A7E001209D0A2949245
:0609A700011209CCA201BF
:0109AD002227
:100923001209877FCC1209AE7F441209AE7FC87EBD
:10093300001209D01209877FCC1209AE7FBE1209BB
:10094300AE1209E6A9071209E6530707EFC454F0EC
:07095300FFE9C4540F420745
:01095A00227A
:10080C0002095BE493A3F8E493A34003F68001F29E
:10081C0008DFF48029E493A3F85407240CC8C333ED
:10082C00C4540F4420C8834004F456800146F6DFBC
:10083C00E4800B0102040810204080900A00E47E42
:10084C00019360BCA3FF543F30E509541FFEE493B1
:10085C00A360010ECF54C025E060A840B8E493A378
:10086C00FAE493A3F8E493A3C8C582C8CAC583CAA3
:10087C00F0A3C8C582C8CAC583CADFE9DEE780BE5B
:010A0F0000E6
:00000001FF
